:100000000C94D7010C94A60E0C947F0E0C94580EF1
:100010000C94310E0C94FF010C94FF010C940A0E09
:100020000C94FF010C9465130C94CD0E0C943C0FB2
:100030000C94FF010C94FF010C94FF010C94FF0140
:100040000C94FF010C94FF010C94FF010C94FF0130
:100050000C94FF010C94FF010C94FF010C94C00D53
:100060000C94FF010C94FF010C94FF010C94FF0110
:100070000C94FF010C94FF010C94FF010C94FF0100
:100080000C94FF010C94CB140C94FF010C94FF0111
:100090000C94B0130C94FF010C94FF010C94FF011D
:1000A0000C94FF010C946E110C94FF0100000000F1
:1000B0000000004F00000007000700147F147F14A9
:1000C000242A7F2A122313086462364955225000DD
:1000D00000070000001C2241000041221C001408FF
:1000E0003E081408083E08080050300000080808C0
:1000F0000808006060000020100804023E514945D5
:100100003E00427F400042615149462141454B310A
:100110001814127F1027454545393C4A4949300398
:10012000017109073649494936064949291E0036F1
:100130003600000056360000081422410014141442
:100140001414004122140802015109063249794170
:100150003E7E1111117E7F494949363E414141227F
:100160007F4141413E7F494949417F090909013E9B
:100170004149497A7F0808087F00417F41002040BB
:10018000413F017F081422417F404040407F020CE4
:10019000027F7F0408107F3E4141413E7F090909EB
:1001A000063E4151215E7F09192946464949493198
:1001B00001017F01013F4040403F1F2040201F3F81
:1001C0004038403F63140814630708700807615102
:1001D000494543007F41410002040810200041418D
:1001E0007F0004020102044040404040000102043C
:1001F0000020545454787F484444383844444420C0
:10020000384444487F3854545418087E0901020C7D
:100210005252523E7F0804047800447D4000204042
:10022000443D007F1028440000417F40007C0418BA
:1002300004787C0804047838444444387C1414144A
:1002400008081414187C7C080404084854545420EA
:10025000043F4440203C4040207C1C2040201C3C6B
:100260004038403C44281028440C5050503C4464D2
:10027000544C44000836410000007F000000413625
:1002800008000C02040806081C2A080800030C0FCA
:1002900030333C3FC0C3CCCFF0F3FCFF080B00026F
:1002A000020200000904000001020200000524000F
:1002B00010010524010101042402060524060001A1
:1002C0000705810310004009040100020A00000034
:1002D00007050202400000070583024000000403F6
:1002E000090412010002EF020140FB1F002300017C
:1002F00001020301506F6C6F6C7520436F72706F59
:10030000726174696F6E00506F6C6F6C7520412D57
:1003100053746172203332553400506F7765723AEE
:10032000200000000000240027002A002D003000DB
:1003300000000000250028002B002E0031000000E6
:10034000000200090F0000030401000C000000007F
:10035000000000000000000000000000000000009D
:10036000002300260029002C002F000404040404AC
:100370000304050202020204030202020206060648
:1003800006060604040202020404040802011040E6
:1003900080401020408040800802040180402010EE
:1003A00002011080102040402000C8152619112499
:1003B0001FBECFEFDAE0DEBFCDBF25E0AAEAB1E095
:1003C00001C01D92A330B207E1F711E0A0E0B1E057
:1003D000ECE0FBE302C005900D92AA3AB107D9F711
:1003E00011E0C6EDD1E004C02197FE010E94391C46
:1003F000C53DD107C9F70E9474160C94791D0C9461
:1004000000005B9887FD5D9A87FF5D985B9A5B981B
:1004100086FD5D9A86FF5D985B9A5B9885FD5D9A87
:1004200085FF5D985B9A5B9884FD5D9A84FF5D987B
:100430005B9A5B9883FD5D9A83FF5D985B9A5B98FE
:1004400082FD5D9A82FF5D985B9A5B9881FD5D9A63
:1004500081FF5D985B9A5B9880FD5D9A80FF5D9857
:100460005B9A0895FC0180915402882311F13FB7F3
:10047000F89482E08093E9002091F200822F90E0CE
:100480001816190614F481E090E0882339F02898B2
:1004900044E6409353024091F1004083222339F017
:1004A0002091F200211103C02BE62093E8003FBF0A
:1004B00008958FEF9FEF08952FB7F89483E080930E
:1004C000E9009091E800892F807295FF04C0909117
:1004D000F20080E4891B2FBF089580914B028111A7
:1004E0000DC082E08093470284E08093480210921E
:1004F0004A021092490281E080934B0287E492E025
:10050000089581508F3008F047C0E82FF0E0E5579C
:10051000FD4F0C94391CA802AC029A02A002A4025E
:10052000CC02CC02CC02AF02B502B902BD02C302BA
:10053000CC02C702809180008F778093800008955D
:10054000809180008F7DF9CF80918000877FF5CFEB
:1005500084B58F7784BD089584B58F7DFBCF80915E
:1005600090008F77809390000895809190008F7D08
:10057000F9CF80919000877FF5CF8091C0008F7771
:100580008093C00008958091C0008F7DF9CF809145
:10059000C200877F8093C2000895CF93DF93282FF6
:1005A00030E0F901E25CFC4F8491F901E657FC4F21
:1005B000D491F901E559FC4FC491CC23A1F08111EC
:1005C0000E948102EC2FF0E0EE0FFF1FE35AFC4F78
:1005D000A591B491EC91ED2381E090E009F480E0E5
:1005E000DF91CF91089580E090E0FACF1F93CF93F1
:1005F000DF93282F30E0F901E25CFC4F8491F90190
:10060000E657FC4FD491F901E559FC4FC491CC2336
:10061000A9F0162F81110E948102EC2FF0E0EE0F5D
:10062000FF1FE05DFC4FA591B4918FB7F894EC915A
:10063000111108C0D095DE23DC938FBFDF91CF91DD
:100640001F910895DE2BF8CFCF93DF9390E0FC014C
:10065000E657FC4F249185599C4FFC0184918823D7
:10066000C9F090E0880F991FFC01EE5DFC4FA59149
:10067000B491FC01E05DFC4FC591D49161110DC0B6
:100680009FB7F8948C91209582238C93888128239E
:1006900028839FBFDF91CF910895623051F49FB7B7
:1006A000F8943C91822F809583238C93E8812E2BA4
:1006B000EFCF8FB7F894EC912E2B2C938FBFEACF0E
:1006C0003FB7F8948091430290914402A091450273
:1006D000B091460226B5A89B05C02F3F19F00196A0
:1006E000A11DB11D3FBFBA2FA92F982F8827BC018C
:1006F000CD01620F711D811D911D42E0660F771FB4
:10070000881F991F4A95D1F708958F929F92AF92B3
:10071000BF92CF92DF92EF92FF924B015C010E9459
:1007200060036B017C010E9460036C197D098E09D6
:100730009F09683E734081059105A8F321E0821A64
:100740009108A108B10888EEC80E83E0D81EE11C0C
:10075000F11C81149104A104B10429F7FF90EF90DA
:10076000DF90CF90BF90AF909F908F9008950895A5
:1007700040912C0250912D0220912A0230912B029F
:1007800042175307B4F49091E8009570E1F390910B
:10079000E80092FD19C08093F10080912C029091A5
:1007A0002D0201968F739927892B19F48EEF809370
:1007B000E80080912C0290912D02019690932D02D9
:1007C00080932C0281E0089580E00895DF92EF92FB
:1007D000FF920F931F93CF93DF93D82E8A01EB01E3
:1007E0007B01E40EF51ECE15DF0559F0D7FE12C0D1
:1007F000FE0184910E94B80321968111F4CF0FEF7E
:100800001FEFC801DF91CF911F910F91FF90EF90E3
:10081000DF9008958881EECF0F931F93CF93DF93DE
:100820001F92CDB7DEB782E0898342E450E06CE9E5
:1008300072E080E80E94E6030E946D02DC011296DD
:100840000D911C910115110589F0D801ED91FC91D4
:100850000280F381E02DBE016F5F7F4FC8010995D3
:1008600097FD04C0F80100851185ECCF89810F90B8
:10087000DF91CF911F910F910895615030F0209139
:10088000F100FC0120830196F8CF289884E680933C
:10089000530208958F929F92AF92BF92CF92DF92B0
:1008A000EF92FF920F931F93CF93DF936C017B0125
:1008B0008A0180911501882309F45CC0809154025B
:1008C000882309F457C08091300280FF05C08091D1
:1008D000E00082608093E000E801B12C8AEFA82E4E
:1008E00093E0892E2AE3922E209711F4BB20D9F1B0
:1008F0000E945C0281110AC0AA94AA20D9F161E089
:1009000070E080E090E00E948503EECF8C171D061A
:1009100011F00CF08C2F9FB7F8948092E900209191
:10092000E80025FD02C09FBFDFCF282F30E0C21BAB
:10093000D30BF701815020F041914093F100FACFA1
:10094000E20EF31EBB2021F09092E800B12CEBCF19
:100950008091E80085FDE7CF9092E800BB24B39436
:10096000209709F3F3CF5D9884E680932F02101649
:1009700011063CF081E090E0F6019383828310E061
:1009800000E0C801DF91CF911F910F91FF90EF9090
:10099000DF90CF90BF90AF909F908F900895CF93AE
:1009A000DF931F92CDB7DEB76983DC01ED91FC9137
:1009B0000280F381E02D41E050E0BE016F5F7F4F88
:1009C00009950F90DF91CF91089583E08093E9001E
:1009D0008091F200882319F08AE38093E80008955B
:1009E0000E945C0290E00895CF93DF931F92CDB7F1
:1009F000DEB7FC018485958597FD08C02FEF3FEF9A
:100A0000358724870F90DF91CF910895CE0101960D
:100A10000E943202019719F4898190E0F3CF8FEFA1
:100A20009FEFF0CF0F931F93CF93DF931F92CDB71C
:100A3000DEB78C01FC018485958597FF0BC0CE0144
:100A400001960E943202019771F4898190E0F801C9
:100A500095878487F801848595850F90DF91CF91E4
:100A60001F910F9108958FEF9FEFF1CFFC018485C7
:100A7000958597FD0BC09FB7F89482E08093E900BD
:100A80008091F2009FBF90E0019608959FB7F8947F
:100A900082E08093E9008091F2009FBF90E008958A
:100AA00080912702E0912802F0912902882339F0F1
:100AB00084919FEB980F9A3120F4805E0895808195
:100AC000F8CF803269F42091280230912902A901DF
:100AD0004F5F5F4F5093290240932802232B01F769
:100AE00008951F93CF93DF930E945005D0E0C0E09C
:100AF0001AE090ED980F9A30B8F41C9F90011D9F5A
:100B0000300D1124E901C80FD11D87FDDA95E0975A
:100B10008091280290912902019690932902809356
:100B200028020E945005E5CFCE01DF91CF911F91A1
:100B300008953F924F925F926F927F928F929F9211
:100B4000AF92BF92CF92DF92EF92FF920F931F93DB
:100B5000CF93DF937B01D42E2091240221111BC05F
:100B600021E020932402109272001092C00034E021
:100B70003093C10039E03093C2002093C30023E0DA
:100B80002093BF0028EE2093D1001092BF00109256
:100B9000D200579A789410920901CC24C39497FFFD
:100BA00003C09F77AAE0CA2EC8E2CC9EC02D1124B4
:100BB000D0E08C179D0750F021E0EC01C21206C076
:100BC000C13187E2D80710F0C0E1D7E24E01B12C65
:100BD000A12C4C2C512C712C612C9E01AFEFB7E055
:100BE0000E94CC1A640D751D861D971D96958795DC
:100BF00077956795A30192010E949F1A60E072E1C8
:100C00008AE790E0312C33946217730784079507C5
:100C100028F09695879577956795F5CFA301920172
:100C20000E948F1A9E0136952795620F731F811DB2
:100C3000911DA50194010E949F1A722E022F132F5D
:100C40002AE0C21207C0CE0105966AE070E00E9459
:100C5000061CEB01C83E83E0D80759F09701DE017E
:100C60000E94CC1A28EE33E040E050E00E941A1CAB
:100C70007901109272008091C100807F8329809356
:100C8000C1001093BF007092D1004D2D403108F08B
:100C90004FE080E190E0841B910902C01695079512
:100CA0008A95E2F71093BF000093D200F0922602DB
:100CB000E092250289B38FEF89BB84E080937200B4
:100CC000DF91CF911F910F91FF90EF90DF90CF9028
:100CD000BF90AF909F908F907F906F905F904F905C
:100CE0003F900895CF93DF93EC01888581110EC06A
:100CF000898591E098879A8562E0911101C060E052
:100D00000E9424038FE090E00197F1F789850E940B
:100D1000CD023B8521E03817190609F420E0822F27
:100D2000DF91CF9108952E98269A2D98259A2A988A
:100D3000229A2998219A80EA8093800081E1809309
:100D4000810080E991E09093870080938600109263
:100D500089001092880010928B0010928A000895EA
:100D60009FB191708CB186FB882780F989272091EB
:100D70001D0230911C024091360250913702282703
:100D80003927231B330B240F351F30933702209351
:100D9000360230911C0220911D02381729F02917C4
:100DA00019F021E020931B0280931C0290931D02F6
:100DB000089524982C9A6A98729A6E98769A8098D8
:100DC000889A81E08093680090E190936B008BBBE0
:100DD00080EB96E090931F0180931E01EAE6F0E01D
:100DE00080818F7C80618083EE9A8CB182FB882722
:100DF00080F98093200293B18091200292959170A6
:100E0000892780931F0210923402109233021092AD
:100E10001E028FB1817080931D029CB180911D02D2
:100E200096FB992790F9892780931C02109237022C
:100E30001092360210921B0208957F928F929F9219
:100E4000AF92BF92CF92DF92EF92FF920F931F93D8
:100E5000CF93DF93FC0122853385232B09F476C0E1
:100E60006B01EC0110E08C851817E8F4E12EF12CF1
:100E70008E859F85F701EE0FFF1FEC0DFD1D918301
:100E80008083EA85FB85EE0DFF1D61E080810E9475
:100E9000F602EA85FB85EE0DFF1D61E080810E9470
:100EA00024031F5FE0CF83E290E00197F1F710E0A9
:100EB0008C851817A0F4E12EF12CEA85FB85EE0D48
:100EC000FF1D60E080810E942403EA85FB85EE0D12
:100ED000FF1D60E080810E94F6021F5FE9CF0E9443
:100EE00060034B015C010E946003AB01BC01481927
:100EF00059096A097B098E859F85B0E0A0E04817F3
:100F000059076A077B0710F50E9460037B01E81808
:100F1000F908712C8C85781630F7072D10E0EA85DA
:100F2000FB85E00FF11F80810E94CD02892B61F4C7
:100F3000000F111FF601E00FF11F80819181E8166B
:100F4000F90610F4F182E0827394E4CFDF91CF913F
:100F50001F910F91FF90EF90DF90CF90BF90AF90D7
:100F60009F908F907F9008952091D101260F332775
:100F7000331F21323105ECF42091F501FC0190E0A2
:100F800080E0243069F082E00895A091D1012191A0
:100F9000AC014F545E4FA40FB52FB11D2C93019699
:100FA000861798F38091D101680F6093D10180E09A
:100FB000089581E0089508958FEF9FEF08958FEFD2
:100FC0009FEF08958091AA0190E0919581959109F4
:100FD0000895CF93DF93CB01EA01642F0E94B407F9
:100FE000CE01DF91CF910895CF93DF931F92CDB7BC
:100FF000DEB7698361E0CE0101960E94B40781E00B
:1010000090E00F90DF91CF910895289A209A08954B
:101010002898209A08955F926F927F928F929F9264
:10102000AF92BF92CF92DF92EF92FF920F931F93F6
:10103000CF93DF935C01D62FC42FF22E132F0E9483
:1010400008088D2F806B0E9401028C2F82958F7073
:1010500080610E9401028C2F8F700E9401020E9409
:101060000508CF2DD12F0C0F1D2F111D95E0692ED6
:10107000C017D10709F444C07990872D8052990B8D
:101080009C01629EC001639E900D1124769C4001DC
:101090001124F12CE12C9C0124553F4F69013FE1C3
:1010A000371508F5F601EE0DFF1DE491F0E084E040
:1010B000F595E7958A95E1F7E457FD4F5490852D16
:1010C0000E940102852D0E9401029FEFE91AF90A90
:1010D00025E0E216F10419F780E00E94010280E0A9
:1010E0000E940102C5CF87E0E0E08715F8F2F40125
:1010F000EE0DFF1DE254FF4FEA0DFB1DE081D6CF40
:10110000DF91CF911F910F91FF90EF90DF90CF90E3
:10111000BF90AF909F908F907F906F905F90089559
:101120005F926F927F928F929F92AF92BF92CF9277
:10113000DF92EF92FF920F931F93CF93DF935C01A7
:10114000D62FC42FF22E132F0E9408088D2F806BEC
:101150000E9401028C2F82958F7080610E94010293
:101160008C2F8F700E9401020E940508CF2DD12F75
:101170000C0F1D2F111D85E0682EC017D10709F433
:1011800040C07990872D8052990B9C01629EC001CE
:10119000639E900D1124769C40011124F12CE12CCA
:1011A0009C0124553F4F69013FE13715E8F4F601F2
:1011B000EE0DFF1DE491EF70F0E0E457FD4F549009
:1011C000852D0E940102852D0E9401029FEFE91AE0
:1011D000F90A25E0E216F10439F780E00E940102E5
:1011E00080E00E940102C9CF87E0E0E0871518F394
:1011F000F401EE0DFF1DE254FF4FEA0DFB1DE081EF
:10120000DACFDF91CF911F910F91FF90EF90DF9098
:10121000CF90BF90AF909F908F907F906F905F9096
:1012200008956F927F928F929F92AF92BF92CF92CA
:10123000DF92EF92FF920F931F93CF93DF935C01A6
:10124000D62FC42FF22E132F0E9408088D2F806BEB
:101250000E9401028C2F82958F7080610E94010292
:101260008C2F8F700E9401020E940508CF2DD12F74
:101270000C0F1D2F111D85E0682EC017D107A9F195
:101280007990872D8052990B9C01629EC001639ECC
:10129000900D1124769C40011124F12CE12C9C012D
:1012A00024553F4F69013FE1371588F4F601EE0DF3
:1012B000FF1D84910E9401029FEFE91AF90A25E0BF
:1012C000E216F10481F780E00E940102D6CF87E0A8
:1012D000871548F0F701E80DF91DE254FF4FEA0DBC
:1012E000FB1D8081E7CF80E0E5CFDF91CF911F919B
:1012F0000F91FF90EF90DF90CF90BF90AF909F90B5
:101300008F907F906F900895282F21FB0EF02098EA
:1013100020FB0EF028980EF4289A21FB0EF4209A58
:101320000895282F21FB0EF0559820FB0EF05D98B4
:101330000EF45D9A21FB0EF4559A0895CF93DF9336
:10134000EC0188810E94910989810E948409E9EE5B
:10135000F0E010828C818093F0008B8180838A8101
:101360008093E200DF91CF910895FC01A2EEB0E0FE
:101370008C9182831C92A9EEB0E08C9183831C92A5
:10138000A0EFB0E08C9184831C9220E05D992160F5
:1013900055992260208320E02899216020992260BD
:1013A00021835D98559A0895CF92DF92EF92FF9234
:1013B0000F93CF93DF93EC017C0184E0E80EF11CE6
:1013C000C7010E94B5096E0184E1C80ED11C08E076
:1013D000960143E162E0CE010E949008960143E14C
:1013E00063E0CE010E940B086E0189E2C80ED11C99
:1013F000960143E165E0CE010E949008960143E129
:1014000066E0CE010E940B08C701DF91CF910F91DA
:10141000FF90EF90DF90CF900C949E09EF92FF9297
:101420000F93CF93DF93EC017C0184E0E80EF11C75
:10143000C7010E94B5099E012C5E3F4F05E142E0C5
:1014400060E0CE010E9411099E01275D3F4F42E0FE
:1014500061E0CE010E9411099E01225C3F4F42E0F3
:1014600062E0CE010E9411099E012D5A3F4F42E0D9
:1014700063E0CE010E9411099E0128593F4F42E0CE
:1014800064E0CE010E9411099E0123583F4F42E0C3
:1014900065E0CE010E9411099E012E563F4F42E0A9
:1014A00066E0CE010E9411099E0129553F4F42E09E
:1014B00067E0CE010E941109C701DF91CF910F9122
:1014C000FF90EF900C949E09EF92FF920F931F9361
:1014D000CF93DF938C017C0184E0E80EF11CC701FF
:1014E0000E94B5090E94080882E00E940102C0E043
:1014F0000E9408088C2F806B0E94010280E10E94EC
:1015000001020E940508D0E080E00E940102DF5F36
:10151000D038D1F7CF5FC83059F7C7010E949E0974
:10152000F8011286DF91CF911F910F91FF90EF90FC
:101530000895AF92BF92CF92DF92EF92FF920F93F6
:101540001F93CF93DF937C01122F683008F043C0C4
:10155000423008F040C088E0861B8217D0F1222379
:10156000D1F1C42FCC0FC40FDCE06D9FD02D11241E
:10157000DD5E670124E1C20ED11C862F90E025E1DB
:10158000429F800D911D1124C80ED91E570184E081
:10159000A80EB11CC5010E94B50962E06C0F012FB5
:1015A00096014D2FC7010E94900863E06C0F9601D1
:1015B0004D2FC7010E940B08C501DF91CF911F91EC
:1015C0000F91FF90EF90DF90CF90BF90AF900C9471
:1015D0009E09182FC6CFDF91CF911F910F91FF90D9
:1015E000EF90DF90CF90BF90AF900895BF92CF92D1
:1015F000DF92EF92FF920F931F93CF93DF93EC0153
:10160000162FB42E022F653198F527E0241780F1AC
:1016100085E1861B801750F1002351F1CE014496DD
:10162000E12EF12C25E1B29EE00CF11C1124E80E14
:10163000F91E6E0184E0C80ED11CC6010E94B509D6
:10164000412F440F410F440F4E5F97016B2DCE0188
:101650000E941109C601DF91CF911F910F91FF9058
:10166000EF90DF90CF90BF900C949E09082FD6CFBB
:10167000DF91CF911F910F91FF90EF90DF90CF906E
:10168000BF900895089590E080E008950E94641D41
:10169000FB0101900020E9F73197AF01461B570B82
:1016A000DC01ED91FC910280F381E02D09948F9291
:1016B0009F92AF92BF92EF92FF920F931F93CF939F
:1016C000DF93CDB7DEB7A1970FB6F894DEBF0FBE9C
:1016D000CDBF7C01FA01CB0119A2223008F42AE027
:1016E0008E010F5D1F4F822E912CB12CA12CBF01BA
:1016F000A50194010E949F1AF901CA016A300CF5F4
:10170000605DD8016E938D01232B242B252B79F757
:1017100090E080E0109721F0BD01C7010E94480BC6
:10172000A1960FB6F894DEBF0FBECDBFDF91CF916B
:101730001F910F91FF90EF90BF90AF909F908F906F
:101740000895695CDECF8F929F92AF92BF92CF9245
:10175000DF92EF92FF920F931F93CF93DF937C0161
:10176000EB016C0182E0C80ED11C4701E5E08E0E52
:10177000911C10E000E0F60141916F0150E070E033
:1017800060E02AE0CE010E94570B5C01E881F981FC
:101790000190F081E02D6EE2CE0109958A0D9B1D2E
:1017A000080F191FC814D90431F7F701458150E01B
:1017B00070E060E02AE0CE010E94570B800F911F7D
:1017C000DF91CF911F910F91FF90EF90DF90CF901D
:1017D000BF90AF909F908F9008951F93CF93DF930A
:1017E00085ED8093BC008091AD019091AE01A091F8
:1017F000AF01B091B0010796A11DB11D23E0B695D0
:10180000A795979587952A95D1F72091BC0024FD3F
:1018100003C01092F50152C04091AD015091AE014C
:101820006091AF017091B001452B462B472B69F3B6
:101830000097A105B10541F02AE22A95F1F700C011
:101840000197A109B109E1CF8091AC01C1E0C0933A
:10185000AB01882399F1D091B8001091BA00809122
:10186000BC008A7B8093BC0060E082E00E94F602AC
:1018700060E083E00E94F6021092F501C093F70148
:101880001092F60161E082E00E94F60261E083E0DE
:101890000E94F6028091B9008E7F8093B9008091FA
:1018A000B9008D7F8093B90088E48093B80085E407
:1018B0008093BC001093BA00D093B800DF91CF9111
:1018C0001F910895DF92EF92FF920F931F93CF9392
:1018D000DF93EC01F62EE42ED22E898581112DC0E6
:1018E0005B98539A5A98529A85E38A95F1F70000CB
:1018F0005A9A529AA5E3AA95F1F70000CE010E94E8
:10190000640A8E010C5F1F4FC8010E94B5090E9436
:10191000080881EA0E94010288EC0E94010281E825
:101920000E9401028FEF0E9401028FEA0E940102D1
:10193000C8010E949E0981E089878A85882319F061
:10194000CE010E94640A2A893B89C9019595879531
:101950008C0F9D1FE889F98920FF08C0DC012D91BB
:101960003C91E20FF31F0190F081E02D2D2D4E2DC3
:101970006F2DDF91CF911F910F91FF90EF90DF902E
:101980000994CF93DF93DC01A354BF4F2C912830EF
:1019900008F5EC01C454DF4FE881E531D8F4AC011F
:1019A00075E1279F400D511D1124E40FF52FF11D06
:1019B000648BFC012385211105C021E04C916881D5
:1019C0000E94620C88818F5F888381E090E0DF91C4
:1019D000CF91089590E080E0FACFAF92BF92CF927E
:1019E000DF92EF92FF920F931F93CF93DF9382EEDC
:1019F000E82EF12CF70100811082C9EED0E0B8800A
:101A0000188290EFC92ED12CF601A080108220E020
:101A10002899216020992260822F2098289A90E1AD
:101A20009A95F1F713B10E9484091882F601A082F9
:101A3000B882F7010083812F80958170DF91CF916B
:101A40001F910F91FF90EF90DF90CF90BF90AF90DC
:101A50000895AF92BF92CF92DF92EF92FF920F93D1
:101A60001F93CF93DF9382EEE82EF12CF701D08104
:101A7000108209EE10E0F801B080108290EFC92EBC
:101A8000D12CF601A080108220E05D99216055994B
:101A90002260822F55985D9A90E19A95F1F7C9B12D
:101AA0000E949109F8011082F601A082F801B0822B
:101AB000F701D0838C2F90E025E0959587952A95A6
:101AC000E1F7809590958170DF91CF911F910F91F3
:101AD000FF90EF90DF90CF90BF90AF900895BF92AE
:101AE000CF92DF92EF92FF920F931F93CF93DF93EA
:101AF0008C01EA016C012DEBC20ED11CF601308184
:101B00003830D8F57C01FCEBEF0EF11CF701808139
:101B1000853198F525E1281B90E02417150620F45F
:101B2000C5E1D0E0C81BD90BF5E13F9F800D911DA9
:101B30001124AE0198012C5E3F4F820F931F0E942B
:101B4000691DBC2EF8018385811108C02C2FF60178
:101B50004081F7016081C8010E94620CF701808119
:101B60008B0D8083CE01DF91CF911F910F91FF905C
:101B7000EF90DF90CF90BF900895D0E0C0E0F2CF1B
:101B80001F920F920FB60F9211242F933F938F93B2
:101B90009F93AF93BF9380913F0290914002A09199
:101BA0004102B091420230913E0223E0230F2D37D3
:101BB00058F50196A11DB11D20933E0280933F026E
:101BC00090934002A0934102B0934202809143025D
:101BD00090914402A0914502B09146020196A11D48
:101BE000B11D8093430290934402A0934502B093A9
:101BF0004602BF91AF919F918F913F912F910F908E
:101C00000FBE0F901F90189526E8230F0296A11D76
:101C1000B11DD2CF1F920F920FB60F9211242F93A6
:101C20003F934F935F936F937F938F939F93AF9364
:101C3000BF93EF93FF93E0911E01F0911F0109956F
:101C4000FF91EF91BF91AF919F918F917F916F9194
:101C50005F914F913F912F910F900FBE0F901F906A
:101C600018951F920F920FB60F9211242F933F9346
:101C70004F935F936F937F938F939F93AF93BF9394
:101C8000EF93FF93E0911C01F0911D010995FF91E5
:101C9000EF91BF91AF919F918F917F916F915F91E4
:101CA0004F913F912F910F900FBE0F901F9018955D
:101CB0001F920F920FB60F9211242F933F934F93C1
:101CC0005F936F937F938F939F93AF93BF93EF93A4
:101CD000FF93E0911A01F0911B010995FF91EF919B
:101CE000BF91AF919F918F917F916F915F914F9134
:101CF0003F912F910F900FBE0F901F9018951F923C
:101D00000F920FB60F9211242F933F934F935F932F
:101D10006F937F938F939F93AF93BF93EF93FF93B3
:101D2000E0911801F09119010995FF91EF91BF9190
:101D3000AF919F918F917F916F915F914F913F9163
:101D40002F910F900FBE0F901F9018951F920F921A
:101D50000FB60F9211242F933F934F935F936F937E
:101D60007F938F939F93AF93BF93EF93FF93E091F4
:101D70001601F09117010995FF91EF91BF91AF9175
:101D80009F918F917F916F915F914F913F912F9193
:101D90000F900FBE0F901F9018951F920F920FB6C5
:101DA0000F9211248F939F938091E1009091E10015
:101DB000937F9093E10083FF0FC01092E90091E0C0
:101DC0009093EB001092EC0092E39093ED00109250
:101DD000540298E09093F00082FF22C093E0909329
:101DE000E9009091F200992319F09AE39093E800AA
:101DF00090912F02992341F090912F02915090934E
:101E00002F02911101C05D9A90915302992341F0E4
:101E100090915302915090935302911101C0289ACE
:101E200084FF18C08091E2008E7E81608093E20082
:101E30008091E1008F7E8093E100809130028E7E60
:101E40008061809330029F918F910F900FBE0F9011
:101E50001F90189580FFF7CF8091E2008E7E806101
:101E60008093E2008091E1008E7E8093E10080917A
:101E700030028E7E8160E5CF1F920F920FB60F92D7
:101E80001124CF92DF92EF92FF920F931F932F9323
:101E90003F934F935F936F937F938F939F93AF93F2
:101EA000BF93EF93FF93CF93DF93CDB7DEB76C97DC
:101EB000DEBFCDBF1092E9008091E80083FF25C00E
:101EC00068E0CE0145960E943D0482EF8093E800D1
:101ED0008D8987FF39C09091E80090FFFCCF982F43
:101EE000907609F034C19E894F89588D2F89F88CDE
:101EF000911131C0803861F5809131028093F100F9
:101F00001092F1008EEF8093E8006C960FB6F89473
:101F1000DEBF0FBECDBFDF91CF91FF91EF91BF919B
:101F2000AF919F918F917F916F915F914F913F9171
:101F30002F911F910F91FF90EF90DF90CF900F9016
:101F40000FBE0F901F9018959EEF9093E800C7CF9B
:101F50001092F100D5CF913059F48111D3CF413097
:101F6000510581F6809131028D7F80933102CACF75
:101F7000933049F48111C6CF4130510519F6809153
:101F800031028260F2CF953041F48091E80080FF09
:101F9000FCCF20682093E300B5CF963009F0A9C0AC
:101FA0000B8D1C8D22E01092E90010922D021092F0
:101FB0002C02F2122EC010922B0210922A020E94C2
:101FC0000C041F8299E09983FA8291E09E8390EA43
:101FD00098879AEF998720912C0230912D02275FE4
:101FE0003F4F3C832B838D831092E90010922D028A
:101FF00010922C0210932B0200932A0249E050E029
:10200000BE016F5F7F4F80E00E94E6030E940C04D8
:1020100079CF10932B0200932A020E946D02DC01FB
:1020200012960D911C910115110509F451C1D801A9
:10203000ED91FC910480F581E02DBE016B5E7F4F38
:10204000C8010995009709F03EC1F8010085118586
:10205000EACFF3E0FF120EC08F89882309F440C055
:10206000823061F440E862E187E093E00E949515D8
:10207000811148CF81E28093EB0047CF813029F472
:1020800040E862E184EF92E0F1CF833099F70E945B
:102090006D02DC011296ED90FC908E010F5F1F4FD8
:1020A0006801E114F10479F0D701ED91FC9106800B
:1020B000F781E02DB801C7010995080F111DF7013F
:1020C000E084F184EECFD8011C92F601019000204B
:1020D000E9F73197BF016C197D0940E0C601C6CF11
:1020E0006EED72E0FB01449150E080E80E94E6034F
:1020F00009CF973009F4BECF983021F481E0809366
:10210000F10000CF993009F0FDCE837009F0B2CF15
:10211000EFE3F1E081E031E096E32191222371F0D9
:102120008093E9003093EB00DF0111972C9120930D
:10213000EC009093ED008F5F873079F78EE7809306
:10214000EA001092EA008F8980935402DBCE8B8DD7
:102150009C8D1092E90010922D0210922C02909307
:102160002B0280932A02898D811192C08E899D89CC
:10217000913A49F4813209F07DCF47E050E06EE0BA
:1021800071E080E0B3CF913209F074CF833269F40B
:102190008F89988DB0E0A0E080930A0190930B01A5
:1021A000A0930C01B0930D01ADCE803269F4809103
:1021B000E80082FFFCCF67E08EE091E00E943D04E2
:1021C0008BEF8093E8009ECE823209F09BCE8F8900
:1021D00080931501EEEFFFE7859194918B3F9C4D25
:1021E00051F1E0E0F8E080910E0190910F01A09193
:1021F0001001B0911101803B9440A105B105F1F4AB
:102200008091150180FD1AC0EE3F8AE0F80789F53C
:1022100087E797E7918380838091600080932E0207
:1022200088E19BE00FB6F894A895809360000FBEFC
:102230009093600067CEEEEFFAE0D5CF8081918178
:102240008737974709F05ECEA89580916000886136
:102250008093600080912E0280936000EE3F2AE020
:10226000F20789F08091FE0A9091FF0A91838083A2
:1022700049CE808191818737980751F29093FF0A68
:102280008093FE0AC5CF1092FF0A1092FE0A3ACE42
:102290000E946D02DC0112960D911C910115110531
:1022A00009F4E8CED801ED91FC910190F081E02D88
:1022B000BE016B5E7F4FC8010995811123CEF801E5
:1022C00000851185EBCF181619060CF41BCED2CE63
:1022D000F1E0FF12BECE62EE72E004CF1F920F92C9
:1022E0000FB60F9211244F925F926F927F928F924E
:1022F0009F92AF92BF92CF92DF92EF92FF920F9395
:102300001F932F933F934F935F936F937F938F937D
:102310009F93AF93BF93CF93DF93EF93FF93C091BE
:102320002502D0912602CE01019790932602809338
:1023300025022097A1F51092720078948091C10037
:10234000807F84608093C10083E08093BF0088EE2B
:102350008093D1001092BF001092D20081E0809350
:1023600009018091280290912902892BC1F0809166
:102370002302811114C070900801809122028823E9
:1023800079F180912102882359F16091210270E056
:1023900040E088EE93E00E94990510922102FF919F
:1023A000EF91DF91CF91BF91AF919F918F917F91ED
:1023B0006F915F914F913F912F911F910F91FF90DE
:1023C000EF90DF90CF90BF90AF909F908F907F90D5
:1023D0006F905F904F900F900FBE0F901F901895C9
:1023E0005524539470ECA72E7DE5B72EEAE04E2ECF
:1023F000F4E06F2EA0EDCA2EA7E0DA2EB4E0EB2EAB
:10240000F12C04EF11E08FE0882E912C0E945005F2
:1024100020912802309129022F5F3F4F30932902EB
:1024200020932802853609F473C00CF047C081362A
:1024300009F4B4C024F58C3309F468C08E3309F470
:1024400063C0813209F043C060920801D092050157
:10245000C0920401F0920701E0920601109303017B
:1024600000930201909201018092000110922202D9
:10247000709008018091020190910301C7CF8336CB
:1024800009F48FC010E00BE0843614F010E002E095
:102490004CE0749E000D11240E945005982F977FE8
:1024A000933209F080C08091280290912902019610
:1024B00090932902809328020F5FEECF8D3609F4A6
:1024C00045C054F4873651F134F18C3651F11092F5
:1024D00029021092280263CF823709F44CC044F4D9
:1024E0008F36A9F70E947105782E809308018ECF50
:1024F000843709F443C0863751F70E9471059093E1
:1025000001018093000182CF739480CF7A947ECFB3
:1025100010E004E0BDCF10E005E0BACF10E007E026
:10252000B7CF0E94710590930701809306018091B7
:1025300004019091050160910601709107010E94CC
:10254000061C709303016093020160CF0E94500546
:102550008C3661F410922202809128029091290217
:102560000196909329028093280250CF5092220224
:1025700010922102F1CF11E000E08ACF0E94710594
:10258000BC01C5010E94061C469EC001479E900DDD
:1025900011249093050180930401C9CF10E009E054
:1025A00077CF10E0E9CF8D3269F4809128029091C5
:1025B00029020196909329028093280201500E94DB
:1025C0005005F1CFE0900201F09003018153883073
:1025D00058F4E0900401F09005010E947105BC01DF
:1025E000C7010E94061C7B016701D694C7940E9414
:1025F00050058E3261F48091280290912902019653
:102600009093290280932802EC0CFD1CEECF809160
:102610002202882349F0C70196958795809321026D
:1026200080912102E81AF108C0900001D0900101C8
:10263000111104C00F3F11F0C11007C040E0B701F5
:1026400088EE93E00E949905AACE013128F010EFA0
:10265000100F103608F01FE5812F6CE00E94FA1B66
:10266000582F44EF450390011124210F311D2C30C8
:10267000310538F4220F331FF901EA5DFE4FC081A6
:10268000D1818730C1F0082E02C0CC0FDD1F0A9423
:10269000E2F7823040F0CE0105966AE070E00E94D9
:1026A000061CCB0102C0CE0190584C2D403108F0E1
:1026B0004FE0B701C7CFCE0126E0880F991F2A95BA
:1026C000E1F7029665E070E0EACF1F920F920FB635
:1026D0000F9211242F933F934F936F937F938F9378
:1026E0009F938CB1282F30E0359527953595279508
:1026F000422F417083B190E064E0959587956A958B
:10270000E1F7822781702091200290911F02609151
:1027100033027091340228279427291B330B260F8C
:10272000371F309334022093330220911F0290917F
:102730002002281729F0941719F091E090931E02B7
:1027400080931F02409320029F918F917F916F9100
:102750004F913F912F910F900FBE0F901F901895A2
:102760001F920F920FB60F9211242F933F934F9306
:102770005F936F937F938F939F93AF93BF93EF93E9
:10278000FF938091B900887F803609F44AC0F0F544
:10279000883209F4A5C018F5803109F499C0B8F45D
:1027A000882309F4F5C0883009F492C0FF91EF91B5
:1027B000BF91AF919F918F917F916F915F914F9159
:1027C0003F912F910F900FBE0F901F901895883159
:1027D00009F486C0803251F78093F40114C080342C
:1027E00009F49BC040F48033B9F38833F9F6809341
:1027F000F40185ECAEC0803509F483C0883509F456
:1028000094C0883499F60E94ED0BD0CF883909F432
:102810008AC038F5883729F050F4883611F08037AF
:1028200029F683E08093F5011092F30155C08838B2
:1028300009F479C0803919F0803809F0B7CF809158
:10284000F301803208F06FC0E091F30181E08E0F58
:102850008093F3018091BB00F0E0ED52FE4F808346
:102860003BC0803B39F0D0F4803A09F477C0883A15
:1028700009F09CCF84E08093F5011092D201109270
:10288000D101F0E0E0E009958091D10181110FC004
:1028900081E08093D1011092B10109C0803C09F41C
:1028A000A8CF883C09F4A5CF883B09F07FCFE09101
:1028B000D20181E08E0F8093D201F0E0EF54FE4F01
:1028C00080818093BB009091D2018091D10129C079
:1028D00080911A028093BB0085EC8093BC0066CF88
:1028E0009091190280911802981758F5E0911902F9
:1028F00081E08E0F80931902F0E0E850FE4F808156
:10290000E9CFE091190281E08E0F80931902809146
:10291000BB00F0E0E850FE4F808390911902809157
:1029200018029817C8F285E8D8CFE091190281E023
:102930008E0F809319028091BB00F0E0E850FE4FAB
:1029400080838091F70181115ECF81E08093F60151
:1029500084EA8093BC001092F50128CF85EC809327
:10296000BC001092F5018091F301803230F4E091C7
:10297000F301F0E0ED52FE4F10826091F30170E040
:1029800083ED91E0F0E0E0E009951092F3010ECFC5
:102990001092F40138CF1F920F920FB60F921124AC
:1029A0002F933F934F935F936F937F938F939F9357
:1029B000AF93BF93CF93EF93FF93E091C502F09154
:1029C000C602C0818091C702C8238091C80290913D
:1029D000C902019649F08091C8029091C9020196FE
:1029E0009093C9028093C8028091C30281111DC0D7
:1029F000C1116EC08091C8029091C902813A9105BF
:102A000078F01092CC028091C8029091C902909304
:102A1000CF028093CE0281E08093CD028093C302E7
:102A20001092C9021092C80253C08091C302813033
:102A3000A9F4CC2309F44CC0E091CD028E0F809311
:102A4000CD028091C8029091C902F0E0EE0FFF1F05
:102A5000ED53FD4F9487838782E0E0CF8091C302DE
:102A6000823009F053C0C11122C0E091CD0281E053
:102A7000E03768F08093CC0283E08093C302E0915A
:102A8000CA02F091CB02309759F20995C9CF8E0F47
:102A90008093CD028091C8029091C902F0E0EE0FC0
:102AA000FF1FED53FD4F9487838781E0B7CF80915F
:102AB000C8029091C902813A910550F083E0809359
:102AC000C302E091CA02F091CB02309709F0099558
:102AD0008091CB04813041F48091CA04C1111DC0A2
:102AE00061E081111DC0479AFF91EF91CF91BF9195
:102AF000AF919F918F917F916F915F914F913F9196
:102B00002F910F900FBE0F901F9018958091C302C8
:102B10008330F1F6C111DCCF83CF882321F060E050
:102B20000E94F602E1CF4798DFCFEF92FF920F931A
:102B30001F93CF93DF93F82E192FE62E042F81E0F9
:102B4000860F880F0E94B80383E00E94B803CF2D40
:102B5000D12FEC0EFD2EF11CCE15DF05B9F007FFCD
:102B600013C0FE0184910E94B803182F80E00E94D8
:102B7000B803812321968111EFCFDF91CF911F916F
:102B80000F91FF90EF9008958881EDCF81E0F5CF10
:102B90001F93CF93DF93E5E5F2E01382128288EE74
:102BA00093E0A0E0B0E084839583A683B78389E4B3
:102BB00091E0918380838FEF9FEF95878487E5EA8B
:102BC000F2E085E891E0918380831282138214827F
:102BD0001582EBEAF2E091838083128213821482E1
:102BE0001582E1EBF2E091838083128213821482DA
:102BF0001582E7EBF2E091838083128213821482C4
:102C00001582EDEBF2E091838083128213821482AD
:102C10001582E3ECF2E0F093F304E093F204118206
:102C200024E0248329E230E03383228352981092F7
:102C3000CA04E4ECF4E0918380831282138214824C
:102C40001582E8EBF4E01282158210868EE081870F
:102C500011E0128713878FE791E091838083E0EB87
:102C6000F4E01282158289E791E091838083E8EA9B
:102C7000F4E0128215828DE691E091838083E6E98B
:102C8000F4E0138212821582148217821682118652
:102C900010861386128687E691E091838083CEEAC0
:102CA000D3E01B821A8248EA50E060E270E082ECD6
:102CB00093E00E94721D109295041092940484ED8A
:102CC00099E09D878C871F861E8689E99AE0998BFB
:102CD000888B1B8A1A8A1A878BE591E099838883EF
:102CE000DF91CF911F910895789484B5826084BD5F
:102CF00084B5816084BD85B5826085BD85B5816000
:102D000085BD80916E00816080936E00109281007D
:102D10008091810082608093810080918100816038
:102D200080938100809180008160809380008091F9
:102D300091008260809391008091910081608093E6
:102D40009100809190008160809390008091C100FB
:102D500084608093C1008091C10082608093C10033
:102D60008091C10081608093C1008091C300816027
:102D70008093C3008091C00082608093C0008091E6
:102D8000C20081608093C20080917A008460809349
:102D90007A0080917A00826080937A0080917A0034
:102DA000816080937A0080917A00806880937A00B5
:102DB0001092540210923102109230028091D7008A
:102DC00081608093D70080EA8093D80089B58061C4
:102DD00089BD89B5826089BD09B400FEFDCF61E07F
:102DE00070E080E090E00E9485038091D8008F7CA5
:102DF00080618093D8008091E000807F8093E00024
:102E00008091E1008E7E8093E1008DE08093E2006E
:102E1000559A209A8FEF9FEF909362028093610200
:102E200010929504109294048EE09AE09093BB0364
:102E30008093BA031092BD031092BC0386EF9AE010
:102E40009093BF038093BE031092C1031092C003FE
:102E500081E08093B80360E590E080E00E94811AF1
:102E600060E081E090E00E94811A90E080E00E94A2
:102E7000791A90E0909339028093380281E090E0D3
:102E80000E94791A682F70E090E080E00E945A1941
:102E900060933A0270933B0280933C0290933D0210
:102EA000C4E6D0E000E010E0332433948091320295
:102EB000811104C0309232020E949306D0938B009D
:102EC000C0938A002A98229A80913202811104C00C
:102ED000309232020E949306D0938900C0938800FA
:102EE0002998219A80913502811104C030923502CF
:102EF0000E94D906F894C0903302D0903402109208
:102F0000340210923302789480913502811104C00A
:102F1000309235020E94D906F894E0903602F09083
:102F2000370210923702109236027894B601D7FE1B
:102F300003C0719561957109072E000C880B990BE0
:102F40000E945C1926E53EE049E450E40E94BB196A
:102F500027E73EEB4FE15DE30E94BB1920E030E83C
:102F600043E654E40E94481B4B015C01B701F7FEA5
:102F700003C0719561957109072E000C880B990BA0
:102F80000E945C1926E53EE049E450E40E94BB192A
:102F900027E73EEB4FE15DE30E94BB1920E030E8FC
:102FA00043E654E40E94481B9B01AC01C501B401F7
:102FB0000E94DC1A20E030E040E251E40E94BB199C
:102FC00020E030E040E05FE30E94BB1920913A022C
:102FD00030913B0240913C0250913D020E94DC1A2C
:102FE0006B017C010E94C11B81E090E00E94811A6C
:102FF000C0923A02D0923B02E0923C02F0923D0233
:10300000A7019601C701B6010E94DC1A9B01AC0121
:1030100060E070E080EA92E40E94DB1A0E94BA1B32
:103020007B0177FF02C0F12CE12C6E2D90E080E057
:103030000E94811AF0923902E092380210926A04DA
:1030400010926B048AE1E82E83E0F82EF701649178
:10305000662349F08EEA93E00E94C10CFFEFEF1A5D
:10306000FF0A892B99F7C0903802D09039020D2CB5
:10307000000CEE08FF082AE0B701A601F7FE0DC01C
:103080006DE28EEA93E00E94C10C44275527BA01F5
:103090004C195D096E097F092AE08EEA93E00E94CF
:1030A000570B67E871E08EEA93E00E94480B10929C
:1030B0006A0430926B046AE871E08EEA93E00E9441
:1030C000480B20E030E040E251E460913A02709118
:1030D0003B0280913C0290913D020E94BB196B0122
:1030E0007C014B015C01AC019B010E94F51B6BE96B
:1030F00071E081111AC026013701E89477F82FEFAB
:103100003FEF4FE75FE7C301B2010E94F51B81115A
:103110001DC02FEF3FEF4FE75FE7C301B2010E94F1
:10312000551918169CF46FE971E08EEA93E00E943D
:10313000480B67EA71E08EEA93E00E94480B0115A4
:10314000110509F4B3CE0E940000B0CE2FEF3FEF7F
:103150004FE75FE4C701B6010E94F01B18161CF48C
:1031600063EA71E0E2CF2FEF3FEF4FE75FECC7017B
:10317000B6010E94551987FDF3CF20E030E0A90188
:10318000C701B6010E94551987FF0BC06DE28EEA98
:1031900093E00E94C10C46015701B7FAB094B7F80A
:1031A000B0942AE037ED43EA5BE3C501B4010E9425
:1031B000DC1A4B015C010E94C11B6B017C010E9467
:1031C0005A199B01AC01C501B4010E94DB1A4B01E5
:1031D0005C012AE0B701A6018EEA93E00E94570B3A
:1031E0006EE28EEA93E00E94C10C20E030E040E203
:1031F00051E4C501B4010E94BB194B015C010E945E
:10320000C11B6B01F12CE12C2AE0B701A6018EEA6B
:1032100093E00E94570BC701B6010E945A199B0107
:10322000AC01C501B4010E94DB1A20E030E040E2AD
:1032300051E40E94BB190E94C11BAB0170E060E029
:103240002AE08EEA93E00E94570B73CF83E791E068
:1032500090939704809396048091A0049091A10488
:10326000009711F00E94DB1C80919A0490919B04BE
:10327000009711F00E94DB1C80919E0490919F04A6
:10328000009711F00E94DB1C8091980490919904A2
:10329000009711F00E94DB1C80919C0490919D048A
:1032A000009711F00C94DB1C08950E94971908F404
:1032B00081E00895E89409C097FB3EF490958095CD
:1032C000709561957F4F8F4F9F4F9923A9F0F92FEC
:1032D00096E9BB279395F695879577956795B7956A
:1032E000F111F8CFFAF4BB0F11F460FF1BC06F5F50
:1032F0007F4F8F4F9F4F16C0882311F096E911C062
:10330000772321F09EE8872F762F05C0662371F082
:1033100096E8862F70E060E02AF09A95660F771F96
:10332000881FDAF7880F9695879597F90895990F72
:103330000008550FAA0BE0E8FEEF16161706E8077F
:10334000F907C0F012161306E407F50798F0621BA0
:10335000730B840B950B39F40A2661F0232B242B75
:10336000252B21F408950A2609F4A140A6958FEF94
:10337000811D811D08950E94CE190C943F1A0E9450
:10338000311A38F00E94381A20F0952311F00C946D
:10339000281A0C942E1A11240C94731A0E94501A95
:1033A00070F3959FC1F3950F50E0551F629FF00198
:1033B000729FBB27F00DB11D639FAA27F00DB11DB1
:1033C000AA1F649F6627B00DA11D661F829F22273A
:1033D000B00DA11D621F739FB00DA11D621F839FC1
:1033E000A00D611D221F749F3327A00D611D231F97
:1033F000849F600D211D822F762F6A2F11249F57E5
:1034000050409AF0F1F088234AF0EE0FFF1FBB1FE7
:10341000661F771F881F91505040A9F79E3F5105A6
:1034200080F00C94281A0C94731A5F3FE4F3983ED2
:10343000D4F3869577956795B795F795E7959F5F50
:10344000C1F7FE2B880F911D9695879597F90895E2
:1034500097F99F6780E870E060E008959FEF80EC47
:10346000089500240A9416161706180609060895EA
:1034700000240A9412161306140605060895092E50
:103480000394000C11F4882352F0BB0F40F4BF2BBF
:1034900011F460FF04C06F5F7F4F8F4F9F4F0895FF
:1034A00057FD9058440F551F59F05F3F71F04795F5
:1034B000880F97FB991F61F09F3F79F087950895DA
:1034C000121613061406551FF2CF4695F1DF08C0F9
:1034D000161617061806991FF1CF86957105610516
:1034E00008940895E894BB2766277727CB0197F9BE
:1034F0000895F999FECF92BD81BDF89A992780B5BC
:103500000895262FF999FECF1FBA92BD81BD20BD27
:103510000FB6F894FA9AF99A0FBE01960895DB0156
:103520008F939F930E94C11ABF91AF91A29F800D6C
:10353000911DA39F900DB29F900D11240895A1E2BB
:103540001A2EAA1BBB1BFD010DC0AA1FBB1FEE1F1D
:10355000FF1FA217B307E407F50720F0A21BB30B68
:10356000E40BF50B661F771F881F991F1A9469F7E4
:1035700060957095809590959B01AC01BD01CF0140
:1035800008950E94CC1AA59F900DB49F900DA49F02
:10359000800D911D11240895A29FB001B39FC00119
:1035A000A39F700D811D1124911DB29F700D811D6F
:1035B0001124911D08955058BB27AA270E94F31A81
:1035C0000C943F1A0E94311A38F00E94381A20F0E9
:1035D00039F49F3F19F426F40C942E1A0EF4E0955A
:1035E000E7FB0C94281AE92F0E94501A58F3BA17D7
:1035F000620773078407950720F079F4A6F50C9409
:10360000721A0EF4E0950B2EBA2FA02D0B01B90102
:1036100090010C01CA01A0011124FF27591B99F048
:10362000593F50F4503E68F11A16F040A22F232F54
:10363000342F4427585FF3CF469537952795A795A4
:10364000F0405395C9F77EF41F16BA0B620B730B4B
:10365000840BBAF09150A1F0FF0FBB1F661F771FBC
:10366000881FC2F70EC0BA0F621F731F841F48F471
:10367000879577956795B795F7959E3F08F0B0CFFA
:103680009395880F08F09927EE0F979587950895E1
:103690000E945C1B0C943F1A0E94381A58F00E943A
:1036A000311A40F029F45F3F29F00C94281A511187
:1036B0000C94731A0C942E1A0E94501A68F39923D2
:1036C000B1F3552391F3951B550BBB27AA2762171E
:1036D0007307840738F09F5F5F4F220F331F441F2B
:1036E000AA1FA9F335D00E2E3AF0E0E832D091505F
:1036F0005040E695001CCAF72BD0FE2F29D0660F4C
:10370000771F881FBB1F261737074807AB07B0E88E
:1037100009F0BB0B802DBF01FF2793585F4F3AF094
:103720009E3F510578F00C94281A0C94731A5F3F51
:10373000E4F3983ED4F3869577956795B795F7951A
:103740009F5FC9F7880F911D9695879597F9089502
:10375000E1E0660F771F881FBB1F6217730784079E
:10376000BA0720F0621B730B840BBA0BEE1F88F7AD
:10377000E09508950E94C11B6894B1110C94731ACE
:1037800008950E94581A88F09F5798F0B92F9927EA
:10379000B751B0F0E1F0660F771F881F991F1AF03C
:1037A000BA95C9F714C0B13091F00E94721AB1E015
:1037B00008950C94721A672F782F8827B85F39F014
:1037C000B93FCCF3869577956795B395D9F73EF4D5
:1037D00090958095709561957F4F8F4F9F4F08957D
:1037E0000E94971908F48FEF08950E949719880B8B
:1037F000990B0895991B79E004C0991F961708F05A
:10380000961B881F7A95C9F780950895AA1BBB1B44
:1038100051E107C0AA1FBB1FA617B70710F0A61BD0
:10382000B70B881F991F5A95A9F780959095BC01F1
:10383000CD010895052E97FB1EF400940E94311CC3
:1038400057FD07D00E949F1A07FC03D04EF40C943A
:10385000311C50954095309521953F4F4F4F5F4F0C
:10386000089590958095709561957F4F8F4F9F4FEC
:103870000895EE0FFF1F0590F491E02D09940F932A
:103880001F93CF93DF938230910510F482E090E094
:10389000E0910105F091020530E020E0B0E0A0E009
:1038A000309799F42115310509F44AC0281B390BCA
:1038B00024303105D8F58A819B816115710589F124
:1038C000FB0193838283FE0111C0408151810281FB
:1038D000138148175907E0F04817590799F41097D2
:1038E00061F012960C93129713961C933296CF01A7
:1038F000DF91CF911F910F910895009301051093CF
:103900000205F4CF2115310551F04217530738F065
:10391000A901DB019A01BD01DF01F801C1CFEF016F
:10392000F9CF9093020580930105CDCFFE01E20F00
:10393000F31F819391932250310939832883D7CF84
:103940002091FF0430910005232B41F420912201A6
:1039500030912301309300052093FF042091200132
:10396000309121012115310541F42DB73EB7409129
:10397000240150912501241B350BE091FF04F091A7
:103980000005E217F307A0F42E1B3F0B2817390799
:1039900078F0AC014E5F5F4F2417350748F04E0FAB
:1039A0005F1F509300054093FF04819391939FCF35
:1039B000F0E0E0E09CCFCF93DF930097E9F0FC01CB
:1039C000329713821282A0910105B0910205ED0198
:1039D00030E020E01097A1F420813181820F931F05
:1039E0002091FF04309100052817390709F061C0C4
:1039F000F0930005E093FF04DF91CF910895EA0171
:103A0000CE17DF07E8F54A815B819E01411551051C
:103A1000B1F7E901FB83EA8349915991C40FD51F9E
:103A2000EC17FD0761F4808191810296840F951F48
:103A3000E90199838883828193819B838A83F0E063
:103A4000E0E012968D919C9113970097B9F52D9116
:103A50003C911197CD010296820F931F2091FF0494
:103A6000309100052817390739F6309751F5109233
:103A7000020510920105B0930005A093FF04BCCF8E
:103A8000D383C28340815181840F951FC817D90702
:103A900061F44E5F5F4F88819981480F591F5183B0
:103AA00040838A819B81938382832115310509F0AC
:103AB000B0CFF0930205E09301059ECFFD01DC013C
:103AC000C0CF13821282D7CF81E090E0F8940C949B
:103AD000791DFB01DC0102C001900D924150504064
:103AE000D8F70895DC0101C06D9341505040E0F7D4
:103AF000089511E0C6EDD1E004C0FE010E94391C1A
:0C3B00002196C73DD107C9F7F894FFCF0C
:103B0C000F00F401D00704000401FFFFFFFF00E1E8
:103B1C00000000000000B703B703B703B703B703F7
:103B2C000000030580009C01B501CF01EA010702EA
:103B3C002602470269028E02B502DE020A0300C1A8
:103B4C00808100000000000000CF044A04F004E56E
:103B5C00043605F404120500000000C10C6F0D437F
:103B6C000B420B000000001D0700000000ED0C00D4
:103B7C00000000460B00000000290D000000007240
:103B8C000600000000A30B0D0A0044697374616EFB
:103B9C0063652064726F76653B20006E616E006910
:0A3BAC006E66006F7666006B6D0018
:00000001FF
